S01C000074696D6572636F756E746572315F627574746F6E2E73726563BB
S11300000C942A000C943C000C943C000C943C008E
S11300100C943C000C943C000C943C000C944D005B
S11300200C943C000C943C000C943C000C943C005C
S11300300C943C000C943C000C943C000C943C004C
S11300400C943C000C943C000C943C000C943C003C
S11300500C943C0011241FBECFE5D8E0DEBFCDBF19
S113006020E0A0E6B0E001C01D92A136B207E1F79E
S11300700E943E000C9467000C94000017BA8FEFA6
S113008088BB84BB15BA8EE08EBD84E090E09BBD36
S11300908ABD80E189BF7894FFCF1F920F920FB67B
S11300A00F9211248F93809160008F5F8093600082
S11300B0809160008A3011F4109260008091600099
S11300C085BB8F910F900FBE0F901F901895F894D9
S10500D0FFCF5C
S9030000FC
