S00B00007462322E7372656311
S11300000C942A000C9447000C9447000C9447006D
S11300100C9447000C9447000C9447000C94470040
S11300200C9447000C9447000C9447000C94470030
S11300300C9447000C9403010C9447000C94470063
S11300400C9447000C9447000C9447000C94470010
S11300500C94470011241FBECFE5D8E0DEBFCDBF0E
S113006010E0A0E6B0E0EEEBF2E002C005900D92E5
S1130070AA36B107D9F720E0AAE6B0E001C01D9284
S1130080A237B207E1F70E94F4000C945D010C94CE
S1130090000098B39F70282F207F922B98BB98B3B1
S11300A09E7F98BB98B3926098BB32E03A95F1F783
S11300B000C098B39D7F98BBEFE8F1E03197F1F76A
S11300C000C0000028B3F0E18F9FC0011124922FDB
S11300D09F70892B88BB88B3826088BB32E03A95D5
S11300E0F1F700C088B38D7F88BB85E08A95F1F76E
S11300F00000089598B39F70282F207F922B98BBFF
S113010098B3916098BB98B3926098BB32E03A95EB
S1130110F1F700C098B39D7F98BBEFE8F1E0319709
S1130120F1F700C0000028B3F0E18F9FC001112453
S1130130922F9F70892B88BB88B3826088BB32E082
S11301403A95F1F700C088B38D7F88BB85E08A9526
S1130150F1F7000008958FEF87BB85E38A95F1F7E7
S1130160000088E20E94490082E00E9449008CE07D
S11301700E94490081E00E94490085E08A95F1F7D8
S1130180000008950F931F93CF93DF938C01C0E079
S1130190D0E003C00E947A002196F801EC0FFD1F05
S11301A080818111F7CFDF91CF911F910F91089535
S11301B0CF93DF93EA01813041F4603130F4862F2C
S11301C08F7080680E94490009C0823039F4603120
S11301D028F4862F8F70806C0E944900CE010E9403
S11301E0C200DF91CF9108950E94AB008FEF8ABBCC
S11301F01BBA10BC88E089B91BB886E880BD88E9C1
S11302008AB97894FFCF1F920F920FB60F921124E0
S11302102F933F934F935F936F937F938F939F930A
S1130220AF93BF93EF93FF93E0916A00F0916B005B
S11302308CB1E159FF4F8083843261F4EFE6F0E042
S11302402081818190E0982F8827822B90936D00E4
S113025080936C0080916C0090916D008535914085
S113026089F48FEF8BBB40E650E064E081E00E94AC
S1130270D8008FEF99E628E1815090402040E1F7C3
S113028000C000001BBA80916A0090916B00019637
S113029090936B0080936A00FF91EF91BF91AF91AF
S11302A09F918F917F916F915F914F913F912F918A
S11102B00F900FBE0F901F901895F894FFCF7B
S10D02BE43616E682062616F000066
S9030000FC
