S00F0000636F756E7465722E7372656315
S11300000C942A000C9434000C9434000C943400A6
S11300100C9434000C9434000C9434000C9434008C
S11300200C9434000C9434000C9434000C9434007C
S11300300C9434000C9434000C9434000C9434006C
S11300400C9434000C9434000C9434000C9434005C
S11300500C94340011241FBECFE5D8E0DEBFCDBF21
S11300600E9444000C944E000C94000089E08CBF64
S113007083B7876083BF82B782BB08B601FEFBCF1C
S113008088B7826088BF089581B38F6081BB12BA3C
S113009083B7886083BF0E943600FDCFF894FFCFFA
S9030000FC
