S00B00004144432E7372656351
S11300000C942A000C9434000C9434000C943400A6
S11300100C9434000C9434000C9434000C9434008C
S11300200C9434000C9434000C9434000C9434007C
S11300300C9434000C9434000C9434000C9434006C
S11300400C9434000C9434000C9434000C9434005C
S11300500C94340011241FBECFE5D8E0DEBFCDBF21
S11300600E94E1000C9405010C94000086B18064A8
S113007086B9349BFECF84B195B10895EF92FF9277
S11300800F931F93CF93DF938C019C01ADECBCECD9
S11300900E94F600AC01569547955695479556959E
S11300A04795CA01880F991F440F551F440F551FC8
S11300B0440F551F480F591FC801841B950BAC01F1
S11300C00E94F600EC01D695C795D695C795D695AE
S11300D0C7959E010E94F600FC01F695E795F695FA
S11300E0E795F695E795CF01880F991FEE0FFF1F4F
S11300F0EE0FFF1FEE0FFF1FE80FF91FCE018E1B3F
S11301009F0BFC0198013695279536952795ABE70B
S1130110B4E10E94F6007C01F694E7949701ADECFB
S1130120BCEC0E94F600EC01D695C795D695C79510
S1130130D695C795CE01880F991FCC0FDD1FCC0F24
S1130140DD1FCC0FDD1FC80FD91FC7018C1B9D0BF2
S1130150EC01980136952795369527953695279580
S1130160A5ECB0E20E94F600929582958F708927E3
S11301709F708927806185BB8FEC97E00197F1F729
S113018000C00000C062C5BB8FEC97E00197F1F797
S113019000C00000E064E5BB8FEC97E00197F1F745
S11301A000C00000406845BB8FEC97E00197F1F771
S11301B000C00000DF91CF911F910F91FF90EF904D
S11301C008958FEF84BB87BB81E487B983E886B940
S11301D00E9436000E943E000E94360086359140FF
S11301E018F08FEF88BBF4CF18BAF2CFA29FB001FA
S11301F0B39FC001A39F700D811D1124911DB29F57
S1110200700D811D1124911D0895F894FFCFF7
S9030000FC
