:100000000C942A000C9434000C9434000C943400AA
:100010000C9434000C9434000C9434000C94340090
:100020000C9434000C9434000C9434000C94340080
:100030000C9434000C9434000C9434000C94340070
:100040000C9434000C9434000C9434000C94340060
:100050000C94340011241FBECFE5D8E0DEBFCDBF25
:100060000E943A000C945F000C9400005D9BFECF50
:100070008CB9089510BC88E089B91BB896E890BD8A
:100080008AB985E50E9436002FEF80E792E0215083
:1000900080409040E1F700C0000081E00E943600FF
:1000A0002FEF80E792E0215080409040E1F700C0C0
:1000B000000084E20E94360080E090E00895F89409
:0200C000FFCF70
:00000001FF
