:100000000C942A000C9474000C944E000C943C0048
:100010000C943C000C943C000C943C000C943C0070
:100020000C943C000C943C000C943C000C943C0060
:100030000C943C000C943C000C943C000C943C0050
:100040000C943C000C943C000C943C000C943C0040
:100050000C943C0011241FBECFE5D8E0DEBFCDBF1D
:1000600020E0A0E6B0E001C01D92A236B207E1F7A1
:100070000E943E000C949C000C94000085B78560A3
:1000800085BF8BB7806C8BBF789481B3837F81BB36
:1000900082B38C6082BB8FEF84BBFFCF1F920F9225
:1000A0000FB60F9211248F939F93809160009091CF
:1000B00061000196909361008093600080916000E0
:1000C000909161000A9724F01092610010926000F4
:1000D000809160009091610085BB9F918F910F90FE
:1000E0000FBE0F901F9018951F920F920FB60F9290
:1000F00011248F939F9380916000909161000197EC
:100100009093610080936000809160009091610005
:10011000992334F489E090E090936100809360002B
:10012000809160009091610085BB9F918F910F90AD
:0C0130000FBE0F901F901895F894FFCFA1
:00000001FF
