S0140000556172745F726563696576652E7372656332
S11300000C942A000C943C000C943C000C943C008E
S11300100C943C000C943C000C943C000C943C006C
S11300200C943C000C943C000C943C000C943C005C
S11300300C943C000C9468000C943C000C943C0020
S11300400C943C000C943C000C943C000C943C003C
S11300500C943C0011241FBECFE5D8E0DEBFCDBF19
S113006020E0A0E6B0E001C01D92A237B207E1F79C
S11300700E9448000C94A9000C94000010BC88E075
S113008089B91BB886E880BD88E98AB9789408954F
S11300900E943E00FFCF5D9BFECF8CB908950F9365
S11300A01F93CF93DF938C01C0E0D0E003C00E9484
S11300B04B002196F801EC0FFD1F80818111F7CFD1
S11300C08AE00E944B00DF91CF911F910F91089518
S11300D01F920F920FB60F9211242F933F934F93B9
S11300E05F936F937F938F939F93AF93BF93EF939C
S11300F0FF93E0916000F09161008CB1EE59FF4FE5
S11301008083E0916000F0916100EE59FF4F80819F
S11301108A3051F080916000909161000196909333
S113012061008093600004C082E690E00E944F006A
S1130130FF91EF91BF91AF919F918F917F916F91BB
S11301405F914F913F912F910F900FBE0F901F9091
S10901501895F894FFCF9E
S9030000FC
