:100000000C942A000C9434000C9434000C943400AA
:100010000C9434000C9434000C9434000C94340090
:100020000C9434000C9434000C9434000C94340080
:100030000C9434000C9434000C9434000C94340070
:100040000C9434000C9434000C9434000C94340060
:100050000C94340011241FBECFE5D8E0DEBFCDBF25
:100060000E9436000C9451000C94000087B38A7FE4
:1000700087BB88B3856088BB84B38F6084BB85B33E
:100080008F6085BB87E083BF12BE82B78A3009F4D8
:1000900012BE82B785BBB299F8CF12BE82B785BBBC
:0600A000F4CFF894FFCF3D
:00000001FF
