:100000000C942A000C943C000C943C000C943C0092
:100010000C943C000C943C000C943C000C943C0070
:100020000C943C000C943C000C943C000C943C0060
:100030000C943C000C944B000C943C000C943C0041
:100040000C943C000C943C000C943C000C943C0040
:100050000C943C0011241FBECFE5D8E0DEBFCDBF1D
:1000600020E0A0E6B0E001C01D92A836B207E1F79B
:100070000E943E000C9491000C9400008FEF84BB12
:1000800015BA10BC88E089B91BB886E880BD88E93C
:100090008AB97894FFCF1F920F920FB60F92112456
:1000A0002F938F939F93EF93FF93E0916000F091D4
:1000B00061008CB1EB59FF4F8083843261F4E5E637
:1000C000F0E02081818190E0982F8827822B909307
:1000D0006300809362008091620090916300853597
:1000E000914059F48FEF85BB8FEF99E628E181505D
:1000F00090402040E1F700C0000015BA80916000F8
:100100009091610001969093610080936000FF914F
:10011000EF919F918F912F910F900FBE0F901F9095
:060120001895F894FFCFD2
:00000001FF
