:100000000C942A000C9434000C9434000C943400AA
:100010000C9434000C9434000C9434000C94340090
:100020000C9434000C9434000C9434000C94340080
:100030000C9434000C9434000C9434000C94340070
:100040000C9434000C9434000C9434000C94340060
:100050000C94340011241FBECFE5D8E0DEBFCDBF25
:100060000E9436000C9444000C94000081E084BB94
:1000700015BA1ABA8BBB89B38111FDCF95B381E054
:0C008000911180E085BBF7CFF894FFCF12
:00000001FF
