:100000000C942A000C9434000C9434000C943400AA
:100010000C9434000C9434000C9434000C94340090
:100020000C9434000C9443000C9434000C94340071
:100030000C9434000C9434000C9434000C94340070
:100040000C9434000C9434000C9434000C94340060
:100050000C94340011241FBECFE5D8E0DEBFCDBF25
:100060000E9436000C9459000C9400008FEF8ABB5C
:100070001BBA82E08EBD80EF98ED9DBD8CBD84E003
:1000800089BF7894FFCF1F920F920FB60F92112461
:100090008F939F939BB381E089278BBB80EF98ED73
:1000A0009DBD8CBD9F918F910F900FBE0F901F90A3
:0600B0001895F894FFCF43
:00000001FF
