S00D0000385F6C65642E737265634B
S11300000C942A000C943F000C943F000C943F0085
S11300100C943F000C943F000C943F000C943F0060
S11300200C943F000C943F000C943F000C943F0050
S11300300C943F000C943F000C943F000C943F0040
S11300400C943F000C943F000C943F000C943F0030
S11300500C943F0011241FBECFE5D8E0DEBFCDBF16
S113006010E0A0E6B0E0EAE0F1E002C005900D92F5
S1130070A836B107D9F70E9441000C9483000C9470
S11300800000CF93DF93CDB7DEB728970FB6F8946F
S1130090DEBF0FBECDBF8FEF84BB15BA88E0E0E6AC
S11300A0F0E0DE01119601900D928A95E1F780E06F
S11300B090E012C0E1E0F0E0EC0FFD1FE80FF91F43
S11300C0208125BB2FEF39E648E1215030404040E4
S11300D0E1F700C000000196DE011196FD010190D8
S11300E00020E9F73197EA1BFB0B8E179F0710F3EB
S11300F080E090E028960FB6F894DEBF0FBECDBF27
S10D0100DF91CF910895F894FFCF2A
S10B010AFFE7C381F3AC01001F
S9030000FC
